:10000000181E00205D3500005935000059350000EC
:1000100000000000000000000000000000000000E0
:100020000000000000000000000000005935000042
:1000300000000000000000005935000059350000A4
:100040005935000059350000593500005935000078
:10005000593500005935000059350000992F00002E
:100060005935000059350000593500005935000058
:100070005935000059350000593500005935000048
:100080005935000059350000593500005935000038
:100090005935000000000000000000005935000044
:1000A0005935000059350000593500005935000018
:1000B0000000000010B5064C2378002B07D1054B3B
:1000C000002B02D0044800E000BF0123237010BDC4
:1000D000AC01002000000000DC3B0000084B10B524
:1000E000002B03D00749084800E000BF0748036819
:1000F000002B00D110BD064B002BFBD09847F9E731
:1001000000000000B0010020DC3B0000DC3B0000F0
:10011000000000000823084882685203520F9340F1
:100120001900064B1960826893B2054A13604B436D
:10013000044A13607047C04600400041A8080020F0
:10014000A00800209C080020F0B58025154B164F14
:100150005C689208AC435C60144CA446002A1FD033
:10016000134C1C801C7DE407FCD500253C68A408CA
:10017000A54204D34408DC6164461C8008E0AA421E
:1001800004D0AC000E5901350651EFE71500F1E738
:100190001C7DE407FCD5AC0000190919521BDDE7F2
:1001A000F0BDC04600400041A808002004A5FFFFA4
:1001B00044A5FFFFF0B50D4A0D4C0E4D0E4E002923
:1001C00012DDA04205D80D4B1B689B00C018C91A50
:1001D000F5E72B689842F6D24308044FD3611680A6
:1001E0003B7DDB07FCD5EEE7F0BDC046004000419B
:1001F000FF3F00009C08002002A5FFFFA808002088
:100200007FB5174B1B78002B27D0042901D100683C
:1002100004E0022901D1008800E000780F25302693
:10022000490004AB5B180B3B5C1AA3420AD00200E6
:100230002A40092A01D8324300E037321A700009F7
:10024000013BF2E730230A2201A8037048334370D0
:1002500043189A700332DA70043100F059FE7FBD02
:10026000CC01002072B6BFF35F8F0022054B1A70DD
:10027000EFF30883044A1360036883F30888436834
:1002800018477047A8010020AC0A0020F7B580216C
:10029000C84C8900200000F07BFD0023C64DC74FED
:1002A0002C60C74C3860236023683A68934200D3BF
:1002B000C2E12B681B78FF2B00D1BAE1232B00D0C1
:1002C00056E1C04B1B78002B03D00221BE4800F042
:1002D0001FFEBE4B1B78532B3DD13A6823689A42D0
:1002E00012D82368013B23602B68013B2B60B84B7D
:1002F0001978B84B1B68994200D32AE1591AB64BBA
:10030000186800F083FD24E1296801330131296078
:10031000B04923600968D31A8B4200D90B00AF4A59
:10032000AE4813600022AA4B1A70AB4A19780668CF
:10033000B142D6D229681668097831701168013146
:100340001160296801312960216801312160197823
:1003500001311970EAE7522B04D19E4B19689E4B6C
:100360001868F4E04F2B04D19B4B9A4A1B68126823
:1003700092E0482B05D1984B964A1B6812681A8068
:10038000E7E0572B05D1944B924A1B6812681A601C
:10039000DFE06F2B03D1904B0121186807E0682B39
:1003A00008D102218C4B8B481B681B880360FFF728
:1003B00027FFCEE0772B06D1874B86481B680421A8
:1003C0001B680360F3E7472B0ED1824B1868FFF7D9
:1003D00049FF834B1B6883F308880122814B1A7005
:1003E000BFF35F8F62B6B4E0542B03D1754A533B21
:1003F00013703FE04E2B0BD1724B1B78002B03D1B7
:100400000221714800F084FD00236E4A1370A0E0C1
:10041000562B32D10121744800F07AFD1121734826
:1004200000F076FD0121724800F072FD0023714852
:10043000286023602B685A1C2A601E78002E02D088
:1004400023680133F5E7216800F062FD0121684867
:1004500000F05EFD6848266028602B685A1C2A6000
:100460001B78002B03D0236801332360F5E7216854
:1004700000F04EFD0221544869E05649582B0DD139
:100480005E4B08681968091AFFF794FE03215C485F
:1004900000F03EFD01225B4B1A705AE0592B24D12B
:1004A0000A684D4B002A03D11A68574B1A6019E0AD
:1004B0005449087800280DD000201E680870534960
:1004C0008E4205D880205249C001861B0E6001E093
:1004D0004F49086018684E4B1B68C0184A4B196892
:1004E000FFF732FE03214B4831E05A2B31D1002671
:1004F000394B09681A68464B1B68D21851188A4252
:100500000DD01078330A43401809434036025E404C
:10051000180346405B015E40B6B20132EFE70121AD
:100520003D4800F0F5FC07230F2232401100360948
:100530003031092A01DD373211006A469954013BF6
:10054000F2D20821684600F0E3FC0321334800F0B2
:10055000DFFC7A221D4B1A7000221E4B1A60194BC9
:100560001B78934262D001212D4800F0D1FC5DE060
:100570001A00303AD0B21749092804D80B681B0179
:100580001A430A6052E01A00413A052A03D80A6861
:10059000373B120106E01A00613A052A04D80A68BE
:1005A000573B1201134340E02C2B3BD10A4B0A6806
:1005B0001A6039E0AC080020980800209408002058
:1005C000A4080020CC0100202E3B000000000020E9
:1005D00090080020B00A0020D4010020B40A0020B6
:1005E000AC0A0020A80100200A3B0000333B0000B9
:1005F0000C3B00000E3B00001A3B00009C08002052
:10060000233B000001000020C8010020FF3F000044
:10061000D0010020273B00002B3B00002D3B0000B9
:10062000313B0000054A137000230B602B68013337
:100630002B602368013336E6F7BDC046000000207A
:1006400043081B1810B5DBB2094A0F24C00707D5B1
:10065000D05C044008010443D4540909D31805E0D0
:10066000D154D3180A00090AA2431143597010BD8E
:10067000B80A002010B5031E022B25D91348032BFE
:1006800004D16022124903F02FFA1DE05A30447859
:10069000027824021443013CA400A4B2A34213D361
:1006A0002200E032FF3292B293420DD880211C1B0F
:1006B0002034640289002000FFF77CFD8022044979
:1006C00092002000FFF740FD10BDC0460200002050
:1006D000B80A0020802270B52C4D04009200002141
:1006E000280003F00AFA032C35D8200003F02CF878
:1006F000020F0F2F3E222649280003F0F5F9FF23B1
:1007000055225B00EA54234B9218EA543CE0002542
:1007100021490020FFF794FF20490120FFF790FFB7
:100720001F4A5A325478137824021C430134A4B26D
:10073000601E80B22100772D00D1184901350134A7
:10074000EDB2FFF77DFFA4B2782DF1D11CE060225D
:100750001349280016E0124A5A32517813780902D8
:1007600019430139890089B28C420DD30B00E03363
:10077000FF339BB29C4207D880222800611A2031A7
:100780004902920003F0B0F970BDC046B80A0020DB
:10079000453B0000FF010000F80F0000FF0F0000C4
:1007A00002000020024B1878431E98414000704719
:1007B000D8010020054B1A780223002A03D1E42334
:1007C000FF330360130018007047C046D8010020B3
:1007D0000020704701207047F22370B55B009842FB
:1007E00001D9012017E00A189A42FAD884B20919EF
:1007F0008DB2A5420ED02000FFF76CFF80220023AF
:1008000092000549012000F0C3FE0134A4B2002883
:10081000EFD1E6E7002070BDB80A0020F22370B5E2
:100820005B00984201D9012017E00A189A42FAD8D1
:1008300084B209198DB2AC420ED000238022074940
:100840009200180000F0A4FE0028ECD02000013433
:10085000FFF710FFA4B2EEE7002070BDB80A002039
:1008600001207047030010B50120002B01D1FFF7D4
:1008700099FF10BD10B50123002803D10800FFF730
:1008800099FF0300180010BD03000020834201D12E
:10089000013048407047030010B50120002B01D102
:1008A000FFF796FF10BD030010B50120002B01D10A
:1008B000FFF790FF10BD00000023984200D1014BCC
:1008C00018007047833B000010B5012304000800A6
:1008D000002C03D11100FFF77FFF0300180010BDAB
:1008E00010B5012304000800002C03D11100FFF70C
:1008F00095FF0300180010BDEFF3108072B6BFF330
:100900005F8F0022024B1A70434258417047C04625
:10091000A8010020024A1378013BDBB21370704734
:1009200070040020002070470020704770470000CE
:1009300010B5064A1378013BDBB213701078C0B2D1
:1009400002F0FCFE0022024B1A7010BDE3010020F1
:1009500076040020002805D00122034B1A70BFF353
:100960005F8F62B67047C046A80100206022144B1A
:10097000197848B20A4000280DDA0020202A1DD13B
:100980005A78212A1AD1DA88072A17D10D499A8173
:100990009960013012E00020202A0FD15A78202AD5
:1009A00003D0223A5042504108E0DA88072A05D1A4
:1009B000012005499A811961024999607047C04632
:1009C000640F0020DC0100202D0900000020A1227E
:1009D00010B50F4B0F4C207018800F4B1A70813AD6
:1009E0005A701E3ADA80E1229880588018810B4BA9
:1009F00052021A600822187158719A7102F098FE1A
:100A0000002803D023780133DBB2237010BDC04629
:100A10000A070020700400207C040020DC01002074
:100A2000F0B53B4B87B01A780493002A6DD101F0E2
:100A300099FD384D2C88002812D001F09DFD84428C
:100A400063D0FFF759FF3449344B0C780700E4B208
:100A50006200D25A05910393314E002A19D102E067
:100A600001F082FDEBE733880133338001F07AFD3A
:100A7000002806D13388632B03D83800FFF76AFFBC
:100A800043E001F06FFD002803D03288254B9A42E5
:100A9000F3D900233380244B1B78002B05D163420C
:100AA0006341059ADBB2137002E062425441E4B242
:100AB0000123049A38001370FFF74CFF039B660074
:100AC0009B5B1F00413FFF3F7A1E9741A022FFB270
:100AD000520093420AD001F045FD002802D001F0F7
:100AE0004BFD01E001F040FD288001E000232B8058
:100AF000A201240214190D49039B0D4A9B5B121994
:100B000000918420390001F07FFE07B0F0BDC0469F
:100B10007804002074040020E4010020E601002095
:100B2000DA0100201F030000090700203D0B000030
:100B3000EC01002010B5FFF773FF10BD10B50028C1
:100B40000CD1074B1B785A425341064A5B0098521E
:100B5000054B1870054B1870FFF762FF10BDC046BB
:100B6000E4010020E60100200907002078040020AD
:100B700070B5FFF7C1FE064B064A1D88064BADB2A5
:100B80001B785B009B5A9CB2FFF7E4FE601B70BDB4
:100B9000720400206C0400207704002010B5FFF7D9
:100BA000E7FF431E9841C0B210BD0000F7B5FFF744
:100BB000A3FE1749174B0C781E78E4B2F6B2002E4C
:100BC00006D1154D154A63002F889B5A9F4203D2C8
:100BD000FFF7C0FE002019E02E806342634101252B
:100BE000DBB20B700B4B1D70FFF7B4FE3000FFF74C
:100BF000D5FF0B4BA2010093A02324021419094A2C
:100C00005B0012192900052001F0FEFDFEBDC04663
:100C10007704002008070020720400206C040020E4
:100C2000A90C00008804002070B50024134B144D5B
:100C30002C701C70134B1C70134B1C70134B1C80BE
:100C40005C80134B1C80FFF7EBFE124B1C70124BA9
:100C50001C70124B1C805C80114B1C80FFF7A6FFA0
:100C6000A04209D02B780133DBB22B702B78DBB29A
:100C7000012B01D10B4A137070BDC04678040020CF
:100C8000E301002009070020E4010020E601002024
:100C90007404002008070020770400206C04002062
:100CA000720400207604002013B504001000002C0C
:100CB0001BD10E4B1B785A425341DBB200290CD199
:100CC0009A011B02D3180A4A0131D218094B00932A
:100CD000A0235B0001F098FD07E0074A5B0089B2A2
:100CE0009952064B1C70FFF761FF13BD770400207B
:100CF00088040020A90C00006C04002008070020D4
:100D0000F7B50F001500FFF7F7FD1C4B19888BB2E4
:100D100000931B4B1C78E4B263000193194B6200F3
:100D2000D65AFFF717FE009BB6B2B34204D3164B58
:100D30001B78002BE7D11FE0124B6200D35A009AB8
:100D40002E009B1A9D4200D91E00009BA101240287
:100D50000919CC180D4932003800091902F0C4FEF7
:100D6000064B064A1B88AD1B9B199BB21380BF190B
:100D7000FFF71CFF002DC6D12800FEBD7204002025
:100D8000770400206C0400207604002088040020F2
:100D9000F7B50026184B01901B780C00B34229D000
:100DA000FFF7AAFD154F39888BB20093144B1D78BD
:100DB000144BEDB26A00D65A009BF61AFFF7CAFD33
:100DC000B44200D93400002C14D0009BA9012D029C
:100DD0004D190D49ED1822004919019802F084FEC1
:100DE000FFF78AFD3B881C19A4B23C80FFF7B2FDD7
:100DF000FFF7DCFE3000FEBD760400207204002008
:100E0000770400206C0400208804002010B50A003C
:100E100001000020FFF774FF10BD000070B5FFF760
:100E20006BFD1049104A0B78DBB25C00A45AA0227B
:100E3000520094420FD10D4A1278002A0BD10C4D6A
:100E40002A78D2B2002A06D101242C705C42634178
:100E50001400DBB20B70FFF77DFDA0204000001BEB
:100E600070BDC046E4010020E601002078040020A7
:100E70000907002010B5FFF7D1FF431E9841C0B20B
:100E800010BD0000F7B51D4B0F009B791400092B16
:100E900000D154000020FFF7EDFF002804D1184BCB
:100EA0001B78002BF6D127E0FFF726FD154B0190AC
:100EB0001D78154BEDB26A00D35A26000093A0238B
:100EC000009A5B009B1A9C4200D91E002B02A801CD
:100ED000C018009B3900C0180C4B3200181802F0E3
:100EE00003FE009B084A9B196D000198AB52BF1985
:100EF000FFF730FDA41BCDD12000FEBDDC0100209A
:100F000076040020E4010020E6010020EC0100202E
:100F100010B50A0001000020FFF7B4FF10BD00204B
:100F200070470000431E98410122034BC0B2187065
:100F3000024B1A707047C046B80C002022010020F6
:100F400010B5054C12220021200002F0D6FDF0233E
:100F50002370E63BE37110BD2C07002010B5FFF7AE
:100F6000EFFF0022014B1A7310BDC0465C01002048
:100F70000022054B10B51A700123044A1370044A6D
:100F8000137002F0CFFB10BD2407002022010020C7
:100F90006901002007B5074B074A009301211F2371
:100FA000022001F031FC002803D10449023001F095
:100FB00001FC07BD291300004C070020950F00001D
:100FC00010B5FFF7E7FF10BD70B50024124B134AB0
:100FD0001C70134B1C7001231370124A1370FFF71F
:100FE0003FFC114EA04202D13070002511E00138C3
:100FF000307002F091FB051EF7D03378A34206D380
:10100000200000210134FFF73FFCE4B2F5E7FFF7D1
:10101000C1FF280070BDC046240700202201002027
:1010200025070020690100200C07002007B5074BA9
:10103000074A009300210D23812001F0E5FB0028E1
:1010400003D10449813001F0B5FB07BDC10F000099
:101050005C0100202D10000070B5094B094D9A6805
:101060001C00002A06D02B7B81207F2B00D8022079
:1010700001F010FB6B686360FFF7D8FF70BDC046DE
:101080005C0100204C07002010B5064B1B78002B9C
:1010900006D0022001F0FEFA0349022001F08AFB8B
:1010A00010BDC046250700208910000010B5064B72
:1010B0001B78002B06D0812001F0ECFA0349812037
:1010C00001F078FB10BDC04625070020AD100000E0
:1010D00010B50C00002807D1FFF740FF034B9A68BA
:1010E000111B9960FFF7B8FF10BDC0465C010020DE
:1010F000602210B5184B197848B20A40002810DA5F
:101100000020202A26D15A78FE2A23D1DA88012A03
:1011100020D1598881421DD110499A8199601000CF
:1011200018E00020202A15D15A78FF2A12D1DA8837
:1011300082420FD15B8883420CD1094B1870094B56
:101140001870023001F0F4F9812001F0F1F9FFF795
:1011500021FF012010BDC046640F00200C070020B5
:10116000250700202407002070B505000C00FFF7BC
:10117000E7FE0122064B1A730022064BDA701A7141
:101180005A719A71220A9D701A735C7370BDC046C1
:101190005C0100202C070020E82110B58901022005
:1011A000FFF7E2FF10BDA02110B589010620FFF76F
:1011B000DBFF10BD10B500210420FFF7D5FF10BDE7
:1011C00007B50B000649020000918120012101F0C2
:1011D0001BFB002803D1FFF7EDFFFFF73DFF07BD25
:1011E000D1100000902110B589010520FFF7BCFF48
:1011F00010BD000010B5094B1B7B594049B20029B6
:1012000004DB074B9A680123824204D2FFF7EAFF0E
:10121000FFF722FF0023180010BDC0464C07002036
:101220005C010020F7B5214D0700142200212800A1
:1012300002F063FC1E4E002F04D02B00F17D08331A
:10124000082402E00424F17C2B1D3F22707C024024
:101250001C2A01D03F2A07D11C221A70123A5A7058
:101260000C34053ADA70E4B2231C8C4200D90B1C12
:10127000DBB2802118000193FFF7BCFF002814D0D7
:10128000707BFFF708FB431E9841C001002F05D07B
:10129000023CA4B224022C80E87002E0013C2C70D5
:1012A000A87001992800FFF78BFFF7BD10070020F9
:1012B0004C07002070B5051E164C0CD1607BFFF763
:1012C000EAFA002807D09C2107208901FFF74CFF8C
:1012D000FFF7C2FE1CE02900627C0F4BDA70A27C93
:1012E0009A70E27C5A70227D1A70A27D0B4B5A7064
:1012F000E27D1A7018884B1E99414002C901FFF720
:1013000079FF002804D00122054B1D70054B1A708F
:1013100070BDC0464C07002028070020260700208B
:101320004807002024070020F8B5002800D0D9E0A5
:101330001F2905D16C496D4B0A680C009A4207D0F1
:1013400001226B4B1A70FFF79FFEFFF7AFFEC9E05B
:101350000F234A7B1A40674B4A731B78934200D293
:10136000AFE0654B8D689D60CB7B1E2B00D1A5E067
:101370000DD8122B2DD004D8002B67D0032B18D0FA
:10138000A5E01A2B5FD01B2B00D18EE09FE02A2B0B
:1013900000D199E006D8252B64D00120282B00D15C
:1013A00092E094E02F2B00D199E001205A2B4AD0F3
:1013B0008DE0CB7C1C1C122B00D91224E4B28021BE
:1013C0002000FFF717FF002800D18BE021004B48D9
:1013D00068E0CB7C1E1C242B00D92426F6B2802189
:1013E0003000FFF707FF00287CD0237C9B0768D1E3
:1013F000677C002F65D1607BFFF755FA002800D08D
:1014000080373F4D6F70607BFFF756FA411C280014
:101410001022103002F068FB002228008118097C9D
:10142000D3B2002901D1202206E02229FBD00132CB
:10143000102AF3D1310035E0102BFBD0C118013355
:101440000A74DBB2F8E7FFF7EDFE4BE01000FFF7A0
:1014500009FA022823D003281ED000283FD0FFF726
:10146000A9FE39E080210820FFF7C4FE002839D00A
:10147000244D607B2900FFF7FDF902280FD00328D7
:101480000AD00028EBD180239B026B602B680821D7
:101490001BBA2B60280005E0FFF785FE1CE0FFF774
:1014A0007BFE19E0FFF78CFE1CE0CB7C990716D57C
:1014B000012110009943FFF7E7F910E0CB7C002BE6
:1014C0000DD0FFF78FFE07E0FFF7F4FE0AE0802162
:1014D00005208901FFF748FEFFF7BEFD02E0FFF798
:1014E0003DFDF9E7F8BDC0464C0700205553424387
:1014F000250700200C0700205C0100202C0700209D
:10150000380100204007002070B51B4A1578002DD7
:101510002FD00023194C13702370194B194A1878D7
:1015200019491A4B1288002804D0487B1968FFF724
:10153000CBF903E0487B1968FFF7D2F92378DBB2D7
:10154000002B03D000221D00227012E0022809D0D7
:10155000032804D0002808D1FFF700FD07E0FFF7BB
:1015600022FE04E0FFF718FE01E0FFF723FEFFF77D
:1015700073FD280070BDC0462407002069010020CB
:1015800048070020260700204C07002028070020DD
:10159000F7B51A4C1E00237807001500002B01D167
:1015A000002029E00023812023709F4200D17F3852
:1015B000134B002E00D0330000930A002B000021B3
:1015C00001F022F9002802D10123237014E0002E3B
:1015D0000ED12378002BFCD00A4B1A78002ADFD1D9
:1015E000012009491B788A685840521B8A6003E031
:1015F000054B9A68521B9A60FEBDC046220100202E
:10160000250F0000B80C00205C01002010B5034B32
:1016100058887F23184001F0A5F910BD640F002001
:1016200070B5164B1B78002B01D1002025E0144B20
:101630001B681B681A798242F7D9124A1360DC785A
:101640009D7824022C4300251C199C4211D95E78F8
:10165000042E0AD19E78864207D1DE788E4204D1CC
:10166000002D00D01360012007E01D785B190125D3
:10167000EBE7002DD9D01360D7E770BD78070020C5
:10168000700700207C070020094B1B681968CA7886
:101690008B7812021A438A180378C018904205D238
:1016A0004378042B02D0052BF6D100E000207047D0
:1016B0007007002070B50500FFF7B2FF002801D1C8
:1016C000002018E00C4B1C682000FFF7DDFF041E13
:1016D0000AD0427903791202C1781A43807800F067
:1016E00073FF0028F0D1EBE7044BAD001B685B688B
:1016F000EB581B68984770BD7C07002070070020DE
:1017000070B500210400FFF78BFF002801D10025F0
:1017100019E00E4BA2001B685B68D658F368984727
:1017200001002000FFF77CFF051EF0D0084B1C686D
:101730002000FFF7A9FF041E03D0807800F024FFEB
:10174000F6E773689847280070BDC0467007002010
:101750007C07002010B501F05DF910BD70B50C4B91
:1017600000241A781D00002A05D1002301222B70C5
:10177000084B1A8070BD084B1B681B681B79A3427D
:10178000F3D920000134FFF7BBFFE4B2F3E7C04612
:1017900078070020760700207007002010B50B4B5B
:1017A00000241B78002B0FD0094B1B681A68127994
:1017B000A24209D95B68A200D3581B69002B00D054
:1017C00098470134E4B2EFE710BDC0467807002027
:1017D00070070020002370B59C4C2278A38150B282
:1017E00023616361984203DAE388002B00D1A2E110
:1017F0006021114000D051E11F23002800DBA9E047
:10180000E588002D00D149E113406CD16378062BA7
:101810000AD0082B5FD0002B00D03FE1022D00D072
:101820003CE129008A485BE06088050A022D0CD063
:1018300006D8012D00D031E1864B1868017841E0CF
:10184000032D1FD00F2D13D028E1824BC0B21A6890
:10185000527C824200D821E15B68C000C058C17848
:1018600083780902194301F08DF8A3685D702BE0BD
:10187000784B9868002800D110E1C178837809027C
:1018800019431FE0C0B2032800D907E101F066FF49
:1018900007000A0004002C010F216F4A04E0042114
:1018A0006E480FE007216E4A00236E485D00D65C4B
:1018B000451901336E80DDB2A942F7D849000231E3
:1018C000017089B201F05EF8E388A2899A4200D8DB
:1018D0000DE1A3810BE1012D00D0DFE0290062487A
:1018E00001F050F803E1012B22D163780A2B00D0DC
:1018F000D4E0012D00D0D1E05B4B1B78002B00D150
:10190000CCE05A4B25791E6833681B79AB4200D86E
:10191000C4E02800FFF784FE002800D1BEE0736811
:10192000AD00EB58DB689847514B012118700FE070
:10193000022B00D0B2E06378002B00D0AEE0022D85
:1019400000D0ABE0207900F09DFE2900494B1880C3
:101950001800C5E713404ED160780138082800D937
:101960009CE001F0F1FE0C9B9B9B059B9B9B1A004E
:10197000E388002B00D091E03F4B2361B7E0E38880
:10198000002B00D08AE06388012B00D086E0022182
:101990002F4A13888B431380A9E0E588002D00D0DF
:1019A0007CE000F0E7FF002800D177E0294EA27824
:1019B00033685B7C9A4271DCFFF7D0FEA3782A4A39
:1019C0001370002B00D192E0284A2C495B187168F3
:1019D0001600DB00CB18136033681B681B79AB4221
:1019E00000D884E000212800FFF764FE002855D0CD
:1019F0000135EDB2F0E7012B15D163780B2B4DD1FA
:101A0000E388002B4AD1184B1B78002B46D026794F
:101A100065883000FFF774FE00283FD0E9B230003F
:101A2000FFF748FE38E0022B38D16378012B02D053
:101A3000032B25D032E0E388002B2FD16388002BC5
:101A40002CD1207900F09CFE26E0C046640F0020D7
:101A500076070020940000206A010020A4010020E5
:101A60007A01002084010020780700207007002000
:101A7000740700206C0700200D160000FFFFFF1FF9
:101A8000E388002B0AD16388002B07D1207900F06E
:101A90004FFD207900F0FEFD002828D11F23227879
:101AA0001340012B25D1254B1B78002B43D0244B11
:101AB00025791E6833681B79AB423CD90021280088
:101AC000FFF7AEFD002814D07368AA00D658F3685B
:101AD000984701002800FFF7A3FD002809D0B3684C
:101AE0009847002803D104E00C21164ADCE60120C7
:101AF00022E01F2322781340022B1CD10F4B00241D
:101B00001B78002B17D00E4B1B681A681279A24263
:101B100011D95B68A200D558EB68984701002000F6
:101B2000FFF77EFD002806D0AB6898470028DED17D
:101B30000134E4B2E7E7002070BDC046780700201A
:101B4000700700209C3B0000094B196800290BD14D
:101B5000EFF31080074A002805D172B6BFF35F8FFC
:101B600005490870012111701A6801321A60704726
:101B70008007002084070020A8010020084B1A6875
:101B8000013A1A601B68002B09D1064B1B78002B09
:101B900005D00122044B1A70BFF35F8F62B6704705
:101BA0008007002084070020A8010020102302499C
:101BB000CA681A42FCD0704700080040022270B583
:101BC00000260A4D0A4C2B6813432B60A284FFF7B2
:101BD000EDFFAB68E3626B68A362A684FFF7E6FFE4
:101BE0002B6830009BB2A38470BDC04688070020DC
:101BF0000008004070B501218678057842784020C1
:101C0000094C0A40236A92018343134380223140E6
:101C1000C90193430B437D3A044915402D020B4003
:101C20002B43236270BDC04600080040FFFCFFFF4D
:101C3000027A438992069B059B0D120C1A43194B9D
:101C400030B55A60C27984798188144342880A4346
:101C500041782243C90104780A431A60042C0ED14A
:101C6000027B018A92060A431500C2890E491204BA
:101C70000A402A439A601A6814431C6010E0202C22
:101C80000ED1027B018A92060A431400C2890649DA
:101C900012040A4022439A601A6804490A431A60EF
:101CA00030BDC046880700200000FF032404000068
:101CB00010B5082806D801F047FD130505270D19B2
:101CC000071F2200172020E00221104A136A0B434D
:101CD000136219E002210D4A93690B43936113E0EB
:101CE00002210A4A138A0B4313820DE00221074A9C
:101CF000938A0B43938207E0FFF760FF05E0022120
:101D0000034A13780B431370002010BD00080040F5
:101D100044080040C2231E21F0B5364EDB00364A8F
:101D2000B360536800258B431A390B43536001237A
:101D30008BB005AC2370E8B22100013500F024F926
:101D4000252DF8D1002320226380A371E3716370F5
:101D50002A4B22701B689B0E3F2B00D1203B237225
:101D600007230025012723730333E381244B20003D
:101D70006381FF3BA380234B2382FFF759FF01A818
:101D8000457087700570FFF735FF0620FFF790FF5D
:101D900000F042F8062302AC2100032023706760A4
:101DA00065702572657200F047F8032000F094F822
:101DB000FFF704FF1023F1680E4A1942FBD080217F
:101DC0000025938C28000B4393840F4B07221D7230
:101DD0005D729D72DD7201232100636022702372A7
:101DE0006570657200F028F8280000F075F80BB0F7
:101DF000F0BDC04600080040004000412460800063
:101E0000FF01000080BBFFFF00040040014B587839
:101E1000C0097047000C00400821054A93690B4334
:101E200093610123034A137011781942FCD1704762
:101E300000040040000C004070B50C784B78240280
:101E4000060005000443002B02D08023DB021C4364
:101E50004B7A002B02D080231B031C434B68012BC1
:101E600013D95D1E1D400222002D09D19A4202D2D3
:101E700001355200FAE780232D0235435B0303E06E
:101E80001D02802335439B021C430B7A002B02D09A
:101E900080239B031C43FFF7B9FF0028FBD1FFF70A
:101EA00053FE0B4B1E70FFF7B1FF0028FBD1094B0F
:101EB0009D601D00FFF7AAFF0028FBD180236A6800
:101EC0005B0213401C436C60FFF758FE70BDC046B8
:101ED000080C0040000C004010B50400FFF796FF0E
:101EE0000028FBD1FFF730FE074B1C70FFF78EFF79
:101EF0000028FBD18021054A490253680B435360F7
:101F0000FFF73CFE10BDC046040C0040000C004032
:101F100010B50400FFF718FE8021054B054A1C7020
:101F20005388C9010B435380FFF728FE10BDC046FC
:101F3000020C0040000C004070B50400FFF704FEE6
:101F40000D4B0E4A1C700E4B5988588809051040DD
:101F500058805C880B48090F204080245880E40199
:101F60005D8807482542FBD144880B0222401A4372
:101F70004280FFF703FE70BD020C0040FFF0FFFF40
:101F8000000C0040FFBFFFFF10B50C782402044393
:101F9000FFF7D2FF014BA4B25C8010BD000C0040E3
:101FA000D37830B5002B1BD11478802C03D080233C
:101FB00024065B02234302255478AC4309D194786C
:101FC000002C02D18024A40201E0C024E4022343B7
:101FD00041605478013C012C04D8114C234001E0AD
:101FE00000234160A0258CB2ED052C43D0251C4375
:101FF00084622D060C0C2C431C438462D478002C84
:102000000CD15B0305D59378012B01D1816100E0F0
:1020100041615378013B012B00D8816030BDC0463F
:10202000FFFFFBFF10B50A0004004309C1090020AF
:10203000814202D1D801054BC0181F231C401E3B12
:10204000A3401900FFF7ACFF10BDC046004400419B
:10205000704710B5FFF75EFEFFF7FAFFFFF7F8FFD6
:10206000FFF7F6FFFFF7F4FF10BD0000EFF310805D
:1020700072B6BFF35F8F0022024B1A704342584181
:102080007047C046A80100200F2303405B00C00931
:102090001818142302385843014B18187047C046CB
:1020A000A4070020F0B58D7985B06BB20E000F2724
:1020B0002800002B45DAFFF7E7FF2F400197038A3E
:1020C000816802937688C3680400F618C660877C2E
:1020D0008E421FD08D1B494BADB29D4206D91800D0
:1020E000029901F0B5FC454B5D1AADB20022BB0769
:1020F00006D50299280001F0C1FB89B24A424A4143
:1021000051000222A37C934362681943A17492197F
:102110002B0008E002233800184009D09F43002319
:102120006268A77492190199354800F0C9FE62E00F
:1021300001239F432368A774002B5CD02A00310041
:1021400058E0FFF7A1FF2F400297038A0400019394
:10215000837C37885B0711D5C26843689446019930
:1021600063448068039301F089FB029B0A00581EB8
:10217000244B8001C118039801F0B6FCE368FA18FB
:10218000A368E2609A4200D9E360B288BA4227D1DC
:10219000E668B34224D09D1B184FADB20199BD42F1
:1021A00004D9380001F054FC7B1A03E0280001F048
:1021B00065FB6B1A019A9BB211489A420AD9042214
:1021C000A37C1343A374029B5A1E0E4B9201D21898
:1021D000019B01E062689219029900F097FE0AE003
:1021E0000122A37C9343A3742368002B03D02A000D
:1021F0000020E168984705B0F0BDC046FF1F000011
:10220000FC0D0020BC0C0020052210B5054C064B2F
:10221000200080211A7000F012FE0021200000F042
:102220001EFE10BDFC0D00206E08002010B5074CEE
:102230000621200000F036FC0421200000F032FCD2
:102240000221200000F01EFC10BDC046FC0D002045
:1022500010B5054C0421200000F024FC02212000D0
:1022600000F010FC10BDC046FC0D002037B5040086
:10227000FFF774FA8023226801AD9372280000F002
:10228000D7FC0323290020006B7000F0D9FC18490B
:10229000200000F05FFE174B02220021200000F01A
:1022A0000FFC0022144B1100200000F009FC134B1E
:1022B00001220021200000F003FC02220021200066
:1022C00000F026FC00222000110000F021FC012279
:1022D0000021200000F01CFC2268094B11890B40F2
:1022E0008021C9000B4313810022064B1A7037BDB1
:1022F0007C0F002075240000B92600003D2300005B
:10230000FFF3FFFF6E080020032210B5074C084BB7
:10231000084920001A7000F01DFE0023064A19002B
:102320009268200000F0CCFD10BDC046FC0D0020DE
:102330006E0800207C0F0020640F002010B5897902
:102340000C4B4AB2002A08DA1B78012B02D1FFF7A6
:10235000DBFF0DE0042B0BD107E01A78022A02D133
:1023600002321A7004E0032A02D1034800F067FD2C
:1023700010BDC0466E080020FC0D0020F8B51D4DB4
:102380001D4E2988B4891D4F641AA4B2002C1BD19C
:102390001B4A1388CB189BB21380F2889A4203D051
:1023A000184B1B78002B07D00422174B1749380015
:1023B0001A7000F0CFFD1CE07369002B0BD098471A
:1023C000002808D02C80B4893F2C04D900220D4B62
:1023D00040241A7002E001220A4B1A702B88B2685E
:1023E0000021D2183800230000F06AFD2B88E41881
:1023F0002C80F8BD6C080020640F0020FC0D00202C
:10240000A2070020A00700206E0800207C0F0020FB
:1024100010B5FFF7C3F901F065F910BD074B9A8CB1
:10242000920605D4D021DA680A40D02AFBD103E015
:102430001022D9681142FCD07047C0460008004005
:1024400010B5FFF7EBFF094C0221200000F02AFB3A
:102450000421200000F016FB054A0621200000F0B0
:10246000FFFA0621200000F00DFB10BDFC0D00203E
:102470002D22000070B5284E0C003378002B06D0BA
:10248000264B1B69002B00D098470023337023880C
:10249000082B02D0FFF7B8FE3CE0214C1F4D2378FB
:1024A0002B7063786B70E378A2781B02D3186B8073
:1024B000637922791B02D318AB80E379A2791B02DE
:1024C000D318EB80FFF786F90028E3D02B787F2B19
:1024D0000ED90021134B22001980134B1348198089
:1024E000022333703E3300F011FDFFF747FF11E088
:1024F000EB88002B02D1FFF707FF0BE00021094B0F
:1025000022001980084B09481980012333703F339A
:1025100000F0FCFC70BDC0466E080020640F002077
:102520007C0F0020A20700206C080020FC0D00207A
:1025300070B5040001000A4800F059FC2000FFF7C4
:10254000A3FD0300827C0120024207D01D68824364
:102550009A74002D02D02200D968A84770BDC046E9
:10256000FC0D002000207047024B1B68188A800475
:10257000400D7047FC0D0020024B1B68188A80B28A
:102580007047C046FC0D0020F7B50400002701ADE0
:10259000280000F04DFB2000FFF7CAFF094E29007C
:1025A0003000EF702C7000F04BFB0F213A002140FF
:1025B000300000F099FA3A003000210000F0F0FA03
:1025C000F7BDC046FC0D0020F7B5060001AC2000A9
:1025D0000F00150000F02CFB26700023082D1ED9DB
:1025E0000123102D1BD90223202D18D90323402DA0
:1025F00015D90423802D12D980235B009D4201D878
:10260000FB3B0CE080239B009D4202D8FB3BFF3B41
:1026100005E0194B9D4201D900202BE00723300033
:102620006370FFF731FD032339000582194001294A
:1026300001D1013B04E0022902D00329ECD104239B
:102640000E4D21002800E37000F0FAFA041EE3D1D9
:102650000F210B4B02003140280000F031FA22001C
:102660003100280000F054FA01223100280000F067
:102670004FFA0120FEBDC046FF030000FC0D002004
:10268000A520000010B50100014800F0C6FB10BDF8
:10269000FC0D00200F2310B5034004000020052B83
:1026A00007D82100034800F0CAFB2000FFF740FFD5
:1026B000012010BDFC0D0020F7B52B4A13780192C4
:1026C000012B42D1294E2A4D0F883488AB89E2195B
:1026D000934201DA1F1BBFB2AB683A0018192549B3
:1026E000E41901F001FAA3B23380224C402F05D146
:1026F000214FE9883A88D218914210DCAB816B698E
:10270000002B09D09847002806D10523019A002004
:102710001370FFF7BFFF25E0FFF7F6FD22E0AA895F
:102720009A420BD16B69002BEFD098470028ECD070
:102730003A883388D3183B8000233380402322001B
:1027400000210E4800F0E2FB0CE0022B02D1FFF763
:1027500015FE07E0064B1B69002B00D098470023AD
:10276000019A1370F7BDC0466E0800206C08002067
:10277000640F00207C0F0020A2070020FC0D002029
:102780000F2370B5034006000024052B0ED8FFF779
:102790007BFC05003100064800F061FBAB7C013496
:1027A000234203D0A343AB742B689847200070BD2D
:1027B000FC0D00200F23F7B5034005000191052B08
:1027C00001D900241CE0FFF75FFC0122837C060096
:1027D0001342F6D10B4F2900380000F01EFB041EF7
:1027E00006D00122B37C1343B374019B336007E02E
:1027F0002900380000F0EAFA041EE2D0019B984755
:102800002000FEBDFC0D0020F0B51D000F2385B09B
:1028100003400700039102920193052B01D9002682
:1028200094E0FFF72FFF061EF9D13800FFF72CFCCC
:102830000400FFF71BFC0123A27C1A4207D00028EA
:10284000EDD0444A1370BFF35F8F62B67EE01A4347
:10285000A274002804D03F4A1370BFF35F8F62B6A2
:10286000029B0121636000230220E3600A9BA560B4
:102870002360039B0B405A00A37C83431343042231
:102880009343A3747BB2002B35DAA67C002D1AD0BB
:10289000314FADB2BD4205D9218A380001F0D8F8D8
:1028A0007D1AADB20021B30706D5218A280000F0B9
:1028B000E5FF89B24B4259410222A37C4900934370
:1028C0001943A17410E0064202D08643A6740BE0BF
:1028D0008E43A6740A9B002B04D000213A00080006
:1028E0000A9B9847012631E02B00029A01991B4868
:1028F00000F0E6FA22E0002D24D0278A164EADB271
:102900003900B54204D9300001F0A2F8731A03E08F
:10291000280000F0B3FF6B1A9BB21048029ABB422A
:1029200009D20422A37C1343A374019B5A1E0C4BAF
:102930009201D2183B00019900F0E8FA4642464164
:10294000F6B203E0A37C8B43A374C3E7300005B069
:10295000F0BDC046A8010020FF1F0000FC0D0020B4
:10296000BC0C0020024B1A688023184390727047F9
:10297000FC0D0020024B1B68987A4006400E704701
:10298000FC0D0020014B986099817047640F002076
:1029900070B50125194C0421226820001389AB432E
:1029A0001381174A00F05CF8164A0021200000F05D
:1029B00057F82900144A200000F052F8134A022167
:1029C000200000F04DF80421200000F05BF8002109
:1029D000200000F057F82900200000F053F80221F1
:1029E000200000F04FF80A4A0621200000F038F8D5
:1029F0000621200000F046F870BDC046FC0D002006
:102A000051220000112400006D220000412400002A
:102A10002D22000073B5FFF729FB01AC0600200052
:102A200000F0A6FC00230B4D22000B492800A370E8
:102A300000F0A6FC280000F0A5FAFFF7EFFCFFF776
:102A4000A7FF002E05D00122044B1A70BFF35F8F41
:102A500062B673BDFC0D002000500041A8010020AB
:102A60000B002E339B0010B51A50AA22044B5200C3
:102A70004900845ACB5A23438352002010BDC046DC
:102A8000AA3B0000064B4900CB5AAB210268490023
:102A90009383425A1A4342520268002013837047BC
:102AA000AA3B0000054B4900CA5AAB214900435AD2
:102AB00093434352036800209A827047AA3B000068
:102AC00010B58C00A4183434A400041940186360B5
:102AD0005930044BFF3001789B5C0B43037000209E
:102AE00010BDC046B83B000010B500248B009B18F9
:102AF00034339B00C31841185C605931034BFF31DC
:102B00009A5C0B78200093430B7010BDB83B00001B
:102B10000F2370B50B40C4186134204DFF34267864
:102B2000AD5C35432570002A0FD10268002B03D11C
:102B300013000322FF332DE05B01D31849B2FF33AA
:102B40000222002926DB012224E0012A0FD102689B
:102B5000002B03D113000C22FF331BE05B01D318C1
:102B600049B2FF330822002914DB042212E0022AB2
:102B700005D102685B01D318FF3310220AE0032A53
:102B800009D102685B01D31849B2FF334022002902
:102B900000DB20229A72002070BDC046B83B0000C6
:102BA0000F2370B50B40C418204D6134FF34AE5C68
:102BB0002578B5432570002A0FD10268002B03D178
:102BC00013000322FF332DE05B01D31849B2FF331A
:102BD0000222002926DB012224E0012A0FD102680B
:102BE000002B03D113000C22FF331BE05B01D31831
:102BF00049B2FF330822002914DB042212E0022A22
:102C000005D102685B01D318FF3310220AE0032AC2
:102C100009D102685B01D31849B2FF334022002971
:102C200000DB20225A72002070BDC046B83B000075
:102C300000230370437083700133C370704700003A
:102C40000F23F0B505000A78C878134052B2042863
:102C500000D999E02C6800F077FD03084A5E7B00FC
:102C6000002008335B01E054AAE05E01A419FF34A0
:102C700062781C20520700D0A2E0702267781742C9
:102C800000D09DE05F3A62702A6808335B01D21879
:102C9000243050712A684B48D31880221A718B78DF
:102CA000002B09D0802583195C682D062C435C60BD
:102CB0005A692A435A6108E0821953685B005B082D
:102CC000536053695B005B085361072285194C7898
:102CD00068683D4E144024073040204368604978BE
:102CE0006B690A401207334013436B6163E058017C
:102CF0002418FF34002A07DA702667781C20374230
:102D00005ED16078503E12E066781C20760757D17D
:102D1000607802262FE058012418FF34002A10DAC8
:102D2000702667781C2037424AD16078403E304395
:102D3000607018002C68083040012018802404714D
:102D400022E066781C2076073AD16078032612E0EC
:102D500058012418FF34002A07DA702667781C20EF
:102D600037422DD16078303EE1E766781C20760747
:102D700026D1042660783043607018002C68083033
:102D800040012018402444710720D20F5B009B189B
:102D90000C4A1B01D3184C785D680B4A2040000791
:102DA0002A4002435A6088785A68002805D080215A
:102DB00009060A435A60002002E0520052085A6095
:102DC000F0BDC046BC0F0020FFFFFF8F0F230B405C
:102DD000026808335B0149B2D05C002901DA400681
:102DE00000E04007400F431E9841C0B270470F23D8
:102DF0000B40026808335B0149B2D218002905DA9A
:102E0000802111710268D318022204E0402151711F
:102E10000268D3180122DA7170470F230B4049B2C0
:102E200000680833002904DA5A018318987980066B
:102E300003E05B01C3189879C006C00F70470F23E9
:102E40000B4049B200680833002903DA5A0183189D
:102E5000202202E010225B01C3185A7170470F2331
:102E600030B50B4002685C011219FF3249B2D579C6
:102E7000002911DA20210D4220D051710268141965
:102E80004022FF34217A114218D02272026808339E
:102E90005B01D318022210E010210D420ED05171B7
:102EA000026814192022FF34217A114206D02272BE
:102EB000026808335B01D31801221A7130BD00008B
:102EC00070B50C00056808346401655D1C266D064C
:102ED0006D0F14D00B4D490169180D000A61496945
:102EE000094A9B040A406A6169699A0C8B0B9B032F
:102EF00013436B61036800261C1980236371300043
:102F000070BDC046BC0F0020FF3F00F070B50C0044
:102F1000056808346401655D1C266D0713D00B4DF0
:102F200049014A519B0469184D681A09084B00264B
:102F30002B4013434B604B689B0B9B034B60036818
:102F40001C1940232371300070BDC046BC0F002007
:102F5000FF3F00F0094B0A4A196059680A40802176
:102F600089020A435A605A68920B92035A604022BF
:102F700003680020FF335A717047C046BC0F002021
:102F8000FF3F00F00221026813780B4313700268C0
:102F90009378022BFCD07047F0B5C54C85B0236800
:102FA0001E6801933378DB0900D1CAE0308C80B20F
:102FB00000F054FD03000500032008335B01F61800
:102FC000F679F6B206424AD00121BA4A94460A007E
:102FD0006746AA403F6897433A0067463A60019ABD
:102FE0001268D218D071019A5219AE3212780A4280
:102FF00035D0B14A019915700968B048595C6B0128
:103000008907890FC31801290CD159688904890CD3
:10301000518059680901890C91805A68920B92037A
:103020005A6014E059680901890C518088B25968C6
:103030008904890C918059688C466746A0493940BB
:103040005960002803D15B689B049B0C5380019A54
:10305000AB1C1B01D3185B689749100098470422EA
:1030600016420DD00123AB40924908689843904B1B
:1030700008601B6819682B0008335B01CB18DA71F4
:10308000082216421DD00123AB408A4908689843A4
:1030900008602068AB1801685B01CB18DA7143192E
:1030A000AE331B789B070CD5844A6B01D318DA89A1
:1030B0001F23814913404B702B01C3180D709B6A6D
:1030C0009847102216421FD00123AB407949086867
:1030D00098432B0008602068083301685B01CB1817
:1030E000DA714319AE331B785B070DD5724A734909
:1030F0006B01CB1815705B6800211B019B0C538082
:103100002B01C318DB6A98472022164200D128E120
:103110000123AB406749086898432B00086020688A
:10312000083301685B01CB18DA714319AE331B78A1
:103130001B0700D415E160490D702D0145192B6B5B
:1031400068E0358CAAB20292002A2DD1AB23019AF5
:103150005B00D35AAA228027B68B019952008A5A63
:10316000B6B233401A40029D01927F00554B6A006F
:10317000D35A334202D0226812689383019A1342D1
:103180000ED05149062D04D14C4B1B891B093B40E5
:103190000B602B0022682E339B009B581000984731
:1031A0000135072DE2D1DCE0019D5935FF35029A4A
:1031B00001211A41DCB20A4200D1CDE01A000832E6
:1031C00051017118C81D2F780390C879297AC0B2AF
:1031D00039406027014038421ED05A01B6184022BB
:1031E000FF36307A104203D03272C03A144304E002
:1031F0002022307A104202D03272344A9471602216
:10320000114200D1ADE0019A1B01D318E0331B68D5
:103210002E4910009847A4E01027384217D0039A8F
:103220001770019AD2186132FF3212783A4200D1F7
:1032300097E022495A018A18526824499204920C54
:103240000A80019A1B01D318DC331B68E1E70327CE
:1032500038423DD002205A01B618FF36357A054271
:103260000DD0802530726D4218482C438471134C68
:10327000A218103252689204920C428010E001258C
:10328000307A28420CD01148357284710B4CA21848
:103290005468A404A40C048052681201920C828029
:1032A0008A075ED00D33019A1B01D3185B68AFE724
:1032B000880800207C08002074080020BC0F002033
:1032C000FF3F00F0AA3B00007008002080080020AB
:1032D0000C27384240D05D017619FF36307A84469B
:1032E0000820674607421DD0307202261E4840194A
:1032F000857E354202D0857EB5438576802040426A
:1033000004431A4852018471019800688218D279E6
:10331000920726D40C22114223D0019A1B01D31804
:10332000D83374E7307A8446042067460742F1D0E8
:10333000307202260C484019857A354202D0857ACF
:10334000B54385720948520184710198006882185A
:10335000D279D207DED504E001330135082B00D045
:1033600025E705B0F0BDC046BC0F00208008002056
:1033700000220123027043708270C3707047000006
:103380000023F0B585B0019204006A4A0D00136075
:10339000694A21601060202068490627CA6903AE87
:1033A0000243CA610122310008387370B270F370B1
:1033B0003770FEF737FE310019203770FEF732FE06
:1033C000019B02AA9B78110038001370FEF7DCFD08
:1033D0003800FEF79DFD01222B7813432B70AB784C
:1033E000DB07FCD403211F20554AD3788B430139D6
:1033F0000B43D370D3780A318B4304390B435149C3
:10340000D3700B685B0B0340834200D1052303405C
:103410002E8D9A014C4B334013432B850B689B0C2C
:1034200003401F2B00D1023B1F202A8D0340824303
:1034300013432B8507230A68D20D1A409A4200D104
:1034400003221340298D1A03404B41480B4013437C
:103450002B85019B29781A787F23D2010B401343D7
:1034600001222B70019B59782B780A40042192008D
:103470008B4313432B70019B6862DB78012B04D1D3
:103480002268083113898B4306E0002B05D10C25F7
:1034900022681389AB430B43138180220021520021
:1034A00000F02BFB23000021221D243302C29A428C
:1034B000FCD120000021A430196059609960D960C6
:1034C000103300229842F7D123002100A533027067
:1034D000AE311A7001331A701A7201339942FAD15F
:1034E000220023000021B832D43302C29342FCD11F
:1034F000200000215530FF30196059609960D96073
:10350000103300229842F7D1AA235B00E252023323
:10351000E252230061345933FF33FF341A701A72B8
:1035200001339C42FAD1802200200A4B1A6005B078
:10353000F0BDC0467C080020880800200004004040
:1035400000500041246080003FF8FFFFFF8FFFFF25
:10355000BC0F002000E100E0FEE700002148224906
:1035600070B5884202D00023204C03E0204B214A52
:10357000002106E0CA18A242F8D2C55804331560EB
:10358000F8E7934201D202C3FBE7FF21022403259F
:10359000194B1A4A8B430C2693600822184B194981
:1035A0005C62CB78AB432343CB70CB78B3431343FC
:1035B000CB703021144B987B8843103908439873A3
:1035C000997BB1431143997380219A7BAA4322438B
:1035D0009A730E4A53680B43536000F05FFA00F091
:1035E00017F8FEE7DC3B000000000020AC010020E3
:1035F000AC010020BC1000200000000000ED00E045
:10360000FC70004100500041004800410040004172
:10361000802310B5284C5B03A360A3618023DB01EA
:1036200019684B1C25D0C9B2002922D1234B244A4A
:103630001B78DB07DB0FDBB2002B01D011600BE046
:1036400010682049884201D1136012E01E4B1160BE
:10365000013B002BFCD1136080235B03636180235B
:10366000DB011A6882F30888184A9360184B1B68BC
:1036700018470122174B1A70BFF35F8F62B6FEF72F
:10368000E8FC80235B036361FEF764F81E21124AA5
:1036900053688B431C390B435360FCF73BFD0F4BC6
:1036A0001B78002B01D0FCF7F1FD0D4B1B78002B94
:1036B000F5D0FDF729FFF2E700440041380400404F
:1036C000FC7F00203581730748E8010000ED00E031
:1036D00004400000A8010020004000418D080020A7
:1036E0008C08002010B5094B1B78002B0DD0084B1F
:1036F0001B78002B09D0FEF737FF8022054B5203C1
:10370000810501D55A6100E09A6110BD8C08002046
:103710008D080020004400410120014B18707047C3
:103720008C0800200022014B1A7070478C08002082
:103730000120014B187070478D0800200022014BBA
:103740001A7070478D08002002B47146490849007C
:10375000095C49008E4402BC7047C04603B4714600
:10376000490840004900095A49008E4403BC70478B
:10377000002243088B4274D303098B425FD3030AB0
:103780008B4244D3030B8B4228D3030C8B420DD3C3
:10379000FF22090212BA030C8B4202D31212090251
:1037A00065D0030B8B4219D300E0090AC30B8B428F
:1037B00001D3CB03C01A5241830B8B4201D38B033D
:1037C000C01A5241430B8B4201D34B03C01A5241E2
:1037D000030B8B4201D30B03C01A5241C30A8B4225
:1037E00001D3CB02C01A5241830A8B4201D38B0210
:1037F000C01A5241430A8B4201D34B02C01A5241B4
:10380000030A8B4201D30B02C01A5241CDD2C30925
:103810008B4201D3CB01C01A524183098B4201D3A1
:103820008B01C01A524143098B4201D34B01C01A8C
:10383000524103098B4201D30B01C01A5241C30804
:103840008B4201D3CB00C01A524183088B4201D373
:103850008B00C01A524143088B4201D34B00C01A5F
:103860005241411A00D20146524110467047FFE7CB
:1038700001B5002000F0F0F802BDC0460029F7D0E5
:1038800076E7704703460B437FD4002243088B4200
:1038900074D303098B425FD3030A8B4244D3030BD7
:1038A0008B4228D3030C8B420DD3FF22090212BA9C
:1038B000030C8B4202D31212090265D0030B8B4218
:1038C00019D300E0090AC30B8B4201D3CB03C01A02
:1038D0005241830B8B4201D38B03C01A5241430BDD
:1038E0008B4201D34B03C01A5241030B8B4201D3CD
:1038F0000B03C01A5241C30A8B4201D3CB02C01A38
:103900005241830A8B4201D38B02C01A5241430AAF
:103910008B4201D34B02C01A5241030A8B4201D39E
:103920000B02C01A5241CDD2C3098B4201D3CB0145
:10393000C01A524183098B4201D38B01C01A5241F4
:1039400043098B4201D34B01C01A524103098B42F8
:1039500001D30B01C01A5241C3088B4201D3CB00E3
:10396000C01A524183088B4201D38B00C01A5241C6
:1039700043088B4201D34B00C01A5241411A00D276
:1039800001465241104670475DE0CA0F00D04942DF
:10399000031000D34042534000229C4603098B424F
:1039A0002DD3030A8B4212D3FC22890112BA030AD7
:1039B0008B420CD3890192118B4208D38901921159
:1039C0008B4204D389013AD0921100E08909C309DE
:1039D0008B4201D3CB01C01A524183098B4201D3E0
:1039E0008B01C01A524143098B4201D34B01C01ACB
:1039F000524103098B4201D30B01C01A5241C30843
:103A00008B4201D3CB00C01A524183088B4201D3B1
:103A10008B00C01A5241D9D243088B4201D34B00CC
:103A2000C01A5241411A00D20146634652415B100E
:103A3000104601D34042002B00D5494270476346EF
:103A40005B1000D3404201B5002000F005F802BD34
:103A50000029F8D016E770477047C0464142084039
:103A60001C2101231B04984201D3000C10391B0AAE
:103A7000984201D3000A08391B09984201D3000972
:103A8000043902A2105C401A7047C0461B1C1D1D61
:103A90001E1E1E1E1F1F1F1F1F1F1F1F0E4B70B538
:103AA00000251E000D4CE41AA410A54204D0AB0062
:103AB000F35898470135F8E700F080F8084B0025E7
:103AC0001E00084CE41AA410A54204D0AB00F35821
:103AD00098470135F8E770BDC83B0000C83B0000BF
:103AE000C83B0000CC3B0000002310B59A4203D035
:103AF000CC5CC4540133F9E710BD03008218934233
:103B000002D019700133FAE770477600200044654F
:103B10006320323220323031360032303A34323A99
:103B2000353400580A0D00590A0D005A00230A0DB9
:103B3000003E00322E30205B41726475696E6F3A30
:103B400058595A5D00EB3C906D6B646F736673005F
:103B50000002040100021000E401F80100E401E0A9
:103B60000100000000000000000000297856341217
:103B7000424F4F544C4F414445520046415431321C
:103B8000202020224F6E2D43686970205669727480
:103B900075616C204D656D6F72792200383736344F
:103BA00032373833393032360000040008007000F4
:103BB0008000010000010002030C1060F8B5C0464F
:103BC000F8BC08BC9E467047DD000000F8B5C04652
:0C3BD000F8BC08BC9E467047B500000021
:103BDC007A01424F4F544C4F41444552000800006B
:103BEC0000000000000000000000000000000000C9
:103BFC0000004146004C004100530048000F0026D5
:103C0C002E00420049004E000000000000000000A1
:103C1C000000464C41534820202042494E000000F1
:103C2C00000000000000000020084E12020000C03E
:103C3C0003000000290C00003109000025090000D8
:103C4C0029090000350B0000CD0900001509000002
:103C5C006D0900002909000000000000C0000020D0
:103C6C00A0000020AC0000208C0000200000000010
:103C7C0078000020640000202401002012010002C2
:103C8C0000000040501D1061000101020301000002
:103C9C0009026200030100C032080B00020202019B
:103CAC0000090400000102020100052400100104B7
:103CBC0024020205240600010524010301070583E3
:103CCC000340001009040100020A000000070584EB
:103CDC000240000007050502400000090402000232
:103CEC000806500207058102400000070502024049
:103CFC0000000100C90F0000710F0000F11000005E
:103D0C001F0F000000000000000003021F00000055
:103D1C00424F4F544C445220000000000000000061
:103D2C000000000000000000312E3030555342538B
:103D3C000000000000000000000141726475696E13
:103D4C006F204D4B52313030300041726475696ECA
:103D5C006F000000000300000000000000000000E5
:103D6C000000000000000000000000000000000047
:0C3D7C0000000000040309040100000026
:00000001FF
